:100000000C944D000C946A000C946A000C946A00E5
:100010000C946A000C946A000C946A000C946A00B8
:100020000C946A000C946A000C946A000C949B0077
:100030000C946A000C94AD000C946A000C946A0055
:100040000C94D1000C946A000C946A000C946A0021
:100050000C946A000C94B5010C946A000C946A002C
:100060000C946A000C946A003E3E20555343204590
:10007000453435394C203C3C373839303132333413
:10008000003E3E2061743332382D352E632068697E
:10009000203C3C3930313233340011241FBECFEFC5
:1000A000D8E0DEBFCDBF11E0A0E0B1E0EAEBFAE0BE
:1000B00002C005900D92A432B107D9F721E0A4E265
:1000C000B1E001C01D92A632B207E1F70E94C4015F
:1000D0000C945B050C940000109285001092840033
:1000E0008EE197E0909389008093880080EE97E4FA
:1000F0009093870080938600EFE6F0E08081836034
:100100008083E0E8F0E0808182608083E1E8F0E0D5
:100110008081886180838081826080832A9A0895AB
:1001200085B5856085BDEEE6F0E0808181608083E5
:100130000895229A08951F920F920FB60F921124DC
:100140008F939F9385B194E0892785B99F918F9173
:100150000F900FBE0F901F9018951F920F920FB621
:100160000F9211242F933F934F935F936F937F933D
:100170008F939F93AF93BF93EF93FF930E949B0046
:10018000FF91EF91BF91AF919F918F917F916F916F
:100190005F914F913F912F910F900FBE0F901F9045
:1001A00018951F920F920FB60F9211240F900FBE49
:1001B0000F901F9018959BB19F709BB99BB1807F4A
:1001C000892B8BB92998299A299A29980895CF9330
:1001D000C82F0E94DB008C2F8295807FCF910C94DA
:1001E000DB0028980E94E70086E69EE00197F1F781
:1001F000000008958295880F880F807C860F8068A4
:100200000C94F100289A0E94E70086E69EE0019790
:10021000F1F700000895CF93DF93EC01FE01849184
:100220002196811103C0DF91CF9108950E940201B0
:10023000F5CFCF93DF93EC018991811103C0DF915A
:10024000CF9108950E940201F7CF8AB1806F8AB9D9
:1002500084B1836084B928988FEF9BE60197F1F70A
:1002600000C0000080E30E94DB008FEF93E2019763
:10027000F1F700C0000080E30E94DB008DED90E00C
:100280000197F1F780E30E94DB0086E69EE001978C
:10029000F1F7000080E20E94DB0086E69EE0019715
:1002A000F1F7000088E20E94F1008FE00C94F10069
:1002B00086E69EE00197F1F7000008959093C5004F
:1002C0008093C400E1ECF0E08081886080838081CD
:1002D0008061808386E08093C20008959091C00081
:1002E00095FFFCCF8093C60008958091C00087FFE2
:1002F000FCCF8091C6000895CF93DF93EC018991E4
:10030000811103C0DF91CF9108950E946E01F7CF54
:10031000EAE7F0E0808180688083ACE7B0E08C9110
:1003200080628C938C9180648C93808188608083C0
:10033000808186608083808180628083EBE7F0E04B
:100340008081846080838C9182608C930895ECE737
:10035000F0E09081907F90839081892B8083EAE701
:10036000F0E080818064808308951F920F920FB621
:100370000F9211248F9381E0809325018F910F902C
:100380000FBE0F901F901895CF93DF93CDB7DEB7B8
:1003900028970FB6F894DEBF0FBECDBF78940E94A9
:1003A00025010E9499000E946C000E9488010E9411
:1003B000900081E00E94F10060E080E00E94FA007D
:1003C00080E091E00E94190160E081E00E94FA0063
:1003D0002FEF8FE796E1215080409040E1F700C079
:1003E000000000E0812C89E0A82E81E0B82E7E017B
:1003F000E5E0EE0EF11CCE0101966C018091250125
:100400008823E1F31092250180917C008F70833066
:1004100019F51091790080917C00807F80937C0099
:1004200080917C00826080937C0019821F921F93D0
:10043000BF92AF92DF92CF920E9483028C0D9D1DDE
:10044000FC0110820F900F900F900F900F900F9063
:1004500001133FC0012FD2CF9090790080917C0092
:10046000807F80937C0080917C00836080937C00FF
:100470001D821F929F92BF92AF92FF92EF920E94B5
:1004800083028E0D9F1DFC0110820F900F900F9024
:100490000F900F900F90102F8914E1F281E00E94CD
:1004A000F10060E080E00E94FA008CE091E00E94A0
:1004B0001901C6010E94190160E081E00E94FA0062
:1004C00088E191E00E941901C7010E941901892C5D
:1004D000C1CF81E00E94F10060E080E00E94FA005C
:1004E0008CE091E00E941901C6010E94190160E0B0
:1004F00081E00E94FA0088E191E00E941901C701A1
:100500000E941901A7CFAEE0B0E0E9E8F2E00C9458
:1005100032050D891E8986E08C831A8309838FEF4B
:100520009FE79E838D83AE01475E5F4F6F89788D15
:10053000CE0101960E94A6022F813885020F131F5B
:10054000F80110822E96E4E00C944E05ABE0B0E08A
:10055000ECEAF2E00C9424057C013B018A01FC01E9
:1005600017821682838181FFC8C1CE0101965C018A
:10057000F7019381F30193FD859193FF81913F01F1
:10058000882309F453C1853239F493FD859193FF93
:1005900081913F01853229F4B70190E00E949604D1
:1005A000E7CF912C212C312CFFE1F31538F08B3261
:1005B00011F190F4803209F1833229F137FC3CC00B
:1005C00020ED280F2A3050F536FE20C08AE0989E94
:1005D000200D1124922E06C08D3291F0803371F7D8
:1005E000689430F8F30193FD859193FF81913F0169
:1005F0008111DACF21C0689431F8689432F8F2CFD3
:10060000689433F8EFCF689434F8ECCFEAE02E9E8C
:10061000200D1124222E689435F8E4CF8E3229F46F
:1006200036FC04C1689436F8DDCF8C3619F4689432
:1006300037F8D8CF8836B1F2982F9F7D95549330F4
:10064000E0F08336A1F18337C1F1833509F063C04F
:100650002801F2E04F0E511CF801C080D180692DB5
:1006600070E036FC02C06FEF7FEFC6010E9480048D
:100670004C01689437F882010AC00C5F1F4FFFE3FA
:10068000F98388248394912C6501E89437F833FE2C
:100690002DC0522C8114910471F5552009F468CFB6
:1006A000B70180E290E00E9496045A94F6CFF801D8
:1006B000808189830E5F1F4FE4CF2801F2E04F0E47
:1006C000511CF801C080D180692D70E036FC02C059
:1006D0006FEF7FEFC6010E948B044C018201D5CFE2
:1006E000B70180E290E00E9496042A94281419042D
:1006F00009F0B0F7CECFF60137FC859137FE819136
:100700006F01B70190E00E94960451105A94F1E0F5
:100710008F1A9108BFCF843619F0893609F077C057
:10072000F80137FE6BC060817181828193810C5F1B
:100730001F4FF32DFF763F2E97FF09C090958095B0
:10074000709561957F4F8F4F9F4F689437F82AE0DF
:1007500030E0A5010E94C604C82ECA188C2C432C78
:1007600036FE0CC0E89440F8C91440F434FE05C0CD
:1007700032FC03C0F32DFE7E4F2E892C44FE95C023
:10078000FE01EC0DF11D8081803309F087C0242D1E
:10079000297E422E842D8870582E43FC95C040FE41
:1007A0008FC09C2C821418F42C0C922C981844FEA8
:1007B00091C0B70180E390E00E94960442FE09C018
:1007C00088E790E041FE02C088E590E0B7010E9412
:1007D0009604C91408F48AC0CA94D12C9FEFC91A90
:1007E000D90ACA0CDB1CF60182916F01B70190E0B7
:1007F0000E949604AC14BD04B1F74FCF60817181A3
:10080000072E000C880B990B0E5F1F4F92CFD32C35
:10081000E894D4F82AE030E0853739F1232D297F98
:10082000D22E8F3601F148F48835A9F0F701868180
:1008300097812B96E2E10C944005803749F0883788
:10084000A9F7D4FE02C06894D2F820E130E00DC0D0
:100850006894D4F8F6CF34FE03C0822F8660D82E79
:1008600020E132E002C028E030E0F801D7FE0FC0FE
:1008700060817181828193810C5F1F4FA5010E946D
:10088000C604C82ECA183D2CE89437F867CF60819B
:10089000718190E080E00E5F1F4FF0CF42FC02C0FC
:1008A000839478CF8394839475CF842D867809F4CC
:1008B00071CFF6CFB70180E290E00E949604839456
:1008C0008214C0F3512C73CF522C5818821408F4A0
:1008D0006ECFF8CF842D867809F47BCF8BE241FE72
:1008E00080E247FC8DE2B70190E071CFB70180E371
:1008F00090E00E9496049A946CCF8FEF9FEF99CF6F
:10090000FC010590615070400110D8F780959095DA
:100910008E0F9F1F0895FC016150704001900110DF
:10092000D8F7809590958E0F9F1F08950F931F9372
:10093000CF93DF93182F092FEB018B8181FD09C025
:100940001FEF0FEF812F902FDF91CF911F910F910C
:10095000089582FF14C02E813F818C819D812817CC
:1009600039073CF4E881F981CF01019699838883A6
:1009700010838E819F8101969F838E83E3CFE885CC
:10098000F985812F0995892BA1F3DACFFA01AA27DE
:10099000283051F1203181F1E8946F936E7F6E5FC2
:1009A0007F4F8F4F9F4FAF4FB1E03ED0B4E03CD070
:1009B000670F781F891F9A1FA11D680F791F8A1F53
:1009C000911DA11D6A0F711D811D911DA11D20D0BA
:1009D00009F468943F912AE0269F11243019305D74
:1009E0003193DEF6CF010895462F4770405D419365
:1009F000B3E00FD0C9F7F6CF462F4F70405D4A33B2
:100A000018F0495D31FD4052419302D0A9F7EACF79
:100A1000B4E0A6959795879577956795BA95C9F7A8
:100A200000976105710508959B01AC010A2E06949B
:100A30005795479537952795BA95C9F7620F731F54
:100A4000841F951FA01D08952F923F924F925F9291
:100A50006F927F928F929F92AF92BF92CF92DF92CE
:100A6000EF92FF920F931F93CF93DF93CDB7DEB733
:100A7000CA1BDB0B0FB6F894DEBF0FBECDBF0994C7
:100A80002A88398848885F846E847D848C849B841E
:100A9000AA84B984C884DF80EE80FD800C811B812C
:100AA000AA81B981CE0FD11D0FB6F894DEBF0FBE5B
:0A0AB000CDBFED010895F894FFCFCB
:100ABA005374617274696E6700257500524947481C
:100ACA00545F4C44523A20004C4546545F4C4452C1
:040ADA003A200000BE
:00000001FF
