:100000000C945A010C9477010C9477010C9407041A
:100010000C9424040C9477010C9477010C947701D0
:100020000C9477010C9487040C9477010C94C8010C
:100030000C9477010C94DA010C9477010C947701FD
:100040000C94FE010C9477010C9477010C947701C9
:100050000C9477010C94D5030C9477010C947701E0
:100060000C9477010C947701E900D700C400BA0022
:100070002A0119010601FD0055014A013F0136011F
:1000800078016601A801920191018501CA01C901A7
:10009000C001BB011102FD01E901DA0137023202A0
:1000A0002B02260221025B024F024E02490273021A
:1000B0006A02A8029D028A0277024D61696E204D94
:1000C000656E7500616E642067657420736F6D6581
:1000D00020736861646500536D617274436861697F
:1000E00072212052656C6178005468616E6B2079D2
:1000F0006F7520666F72207573696E670041646466
:100100002074696D65005350462033302B20737581
:100110006E73637265656E2E00636F6E74696E75C3
:10012000652C206170706C7920005761726E696E69
:10013000673A20746F004164642074696D650053F0
:1001400065656B2073686164650073756E20697303
:100150002075702100596F75722074696D65206972
:100160006E207468650054696D652077696C6C2039
:10017000726573756D652E00506C656173652066E0
:100180006C69702100456E642073657373696F6ECE
:100190000000466C697020736964657320696E2085
:1001A0007878206D696E2E0054696D65206C6566E7
:1001B000743A207878206D696E2E004261636B007E
:1001C000436F6E74696E7565000054616E20666FD2
:1001D000723A207878206D696E00446966666572AF
:1001E000656E742054696D650054616E20666F728F
:1001F000207878206D696E757465733F006D696E47
:100200007574657320696E207468652073756E2E31
:10021000005765207265636F6D6D656E6420787838
:10022000004261636B004461726B004D65646975E7
:100230006D00466169720053656C65637420536B91
:10024000696E20547970653A004261636B00005416
:1002500068652055562069733A200055562052652E
:100260006164696E673A20787800436865636B2043
:1002700055560054616E002D2D2D2D2D2D2D2D2D1B
:100280002D2D2D2D2D2D2D2D2D002D2D2D2D2D2DCB
:100290002D2D2D2D2D2D2D2D2D2D2D2D00536D6121
:1002A000727443686169720057656C636F6D652095
:1002B000746F000011241FBECFEFD8E0DEBFCDBFAA
:1002C00011E0A0E0B1E0E6EEF1E102C005900D9290
:1002D000A438B107D9F721E0A4E8B1E001C01D922C
:1002E000A539B207E1F70E94AA040C94F1080C9416
:1002F000000010928500109284008EE197E09093A8
:1003000089008093880080EE97E490938700809323
:100310008600EFE6F0E0808183608083E0E8F0E033
:10032000808182608083E1E8F0E080818861808361
:100330008081826080832A9A0895229A0895681B9A
:10034000770B693071058CF080918800909189005D
:100350008232974048F480918800909189000196FC
:1003600090938900809388000895683F7F4F6CF4D4
:1003700080918800909189008A319740A8F38091FC
:100380008800909189000197EBCF8EE197E0E8CF4C
:100390001F920F920FB60F9211248F939F9385B1E6
:1003A00094E0892785B99F918F910F900FBE0F9090
:1003B0001F9018951F920F920FB60F9211242F9332
:1003C0003F934F935F936F937F938F939F93AF93DD
:1003D000BF93EF93FF930E94C801FF91EF91BF91EC
:1003E000AF919F918F917F916F915F914F913F91CD
:1003F0002F910F900FBE0F901F9018951F920F9284
:100400000FB60F9211240F900FBE0F901F901895EA
:100410009BB19F709BB99BB1807F892B8BB9299829
:10042000299A299A29980895CF93C82F0E940802E3
:100430008C2F8295807FCF910C94080228980E947F
:10044000140286E69EE00197F1F700000895E82F78
:10045000F0E0EB5AFE4F8081860F80680C941E02FC
:1004600081E00C941E02289A0E94140286E69EE007
:100470000197F1F700000895CF93DF93EC01FE019F
:1004800084912196811103C0DF91CF9108950E943C
:100490003302F5CFCF93C82F60E00E9427028EE38E
:1004A0000E94330260E08C2FCF910C942702CF93EF
:1004B000DF93EC018991811103C0DF91CF91089501
:1004C0000E943302F7CFAF92BF92CF92DF92EF92AA
:1004D000FF920F931F93CF93DF93CDB7DEB764974F
:1004E0000FB6F894DEBF0FBECDBF5C017B016A0181
:1004F00061E080E00E94270285E0E816F1049CF1AB
:10050000760184E0E80EF11C10E000E015C0EE0F6B
:10051000FF1FEA0DFB1D65917491CE0101960E94AB
:100520001206CE0101960E94570261E081E0800F21
:100530000E9427020F5F1F4FF601E00FF11FEE151B
:10054000FF052CF364960FB6F894DEBF0FBECDBF47
:10055000DF91CF911F910F91FF90EF90DF90CF909F
:10056000BF90AF900895D12CC12CCECF8AB1806FAF
:100570008AB984B1836084B928988FEF9BE601978C
:10058000F1F700C0000080E30E9408028FEF93E2C1
:100590000197F1F700C0000080E30E9408028DED92
:1005A00090E00197F1F780E30E94080286E69EE062
:1005B0000197F1F7000080E20E94080286E69EE0C3
:1005C0000197F1F7000088E20E941E028FE00C9470
:1005D0001E0286E69EE00197F1F7000008959093D1
:1005E000C5008093C400E1ECF0E0808188608083E6
:1005F00080818061808386E08093C200089590911D
:10060000C00095FFFCCF8093C60008958091C00084
:1006100087FFFCCF8091C6000895CF93DF93EC0154
:100620008991811103C0DF91CF9108950E94FF024B
:10063000F7CFEAE7F0E0808180688083ACE7B0E044
:100640008C9180628C938C9180648C938081886083
:100650008083808186608083808180628083EBE7F5
:10066000F0E08081846080838C9182608C93089517
:1006700085B5856085BDEEE6F0E080818160808390
:1006800008950F931F93CF93DF938C01EB0190910B
:100690008E01809193019817E9F081E00E941E027B
:1006A00060E080E00E94270289E691E00E94570204
:1006B000C8010E94570260E081E00E94270285E79E
:1006C00091E00E945702CE010E94570280918E0154
:1006D000809393019091880180918D019817E9F0A2
:1006E00081E00E941E0260E080E00E94270289E60D
:1006F00091E00E945702C8010E94570260E081E029
:100700000E94270285E791E00E945702CE010E94D5
:1007100057028091880180938D01DF91CF911F91C5
:100720000F91089520917C002F70233019F52091AE
:10073000790020938E0120917C00207F20937C0003
:1007400020917C00226020937C00FC01108220918B
:100750008E011F922F9320E831E03F932F939F93B8
:100760008F930E9419060F900F900F900F900F908B
:100770000F900895809179008093880180917C008A
:10078000807F80937C0080917C00836080937C00DC
:10079000FB011082809188011F928F9380E891E085
:1007A0009F938F937F936F93DCCF1F920F920FB61F
:1007B0000F9211248F9381E0809384018F910F9089
:1007C0000FBE0F901F901895E8E6F0E080818160E1
:1007D0008083EBE6F0E0808180688083E0E7F0E0F2
:1007E000808181608083B89A0895E8E6F0E0808196
:1007F00082608083ECE6F0E080818360808388B152
:10080000836088B9109287011092940108951F9215
:100810000F920FB60F9211248F93EF93FF93EBE695
:10082000F0E080818F77808381E080938F01E1EB1E
:10083000F0E0808185608083FF91EF918F910F9030
:100840000FBE0F901F9018951F920F920FB60F9228
:1008500011242F938F939F93EF93FF9386B18093EF
:100860008A0180918A0181708093920180918A012E
:1008700082708093850180918701880F880F809313
:100880008701809192012091850190918701822BAF
:10089000892B80938701809187018F7080938701D6
:1008A000E0918701F0E0E75AFE4F8081882329F12B
:1008B000809194018295807F80939401909187012B
:1008C00080919401892B80939401809194018B32C3
:1008D00041F48091900181508093900181E0809358
:1008E000890180919401873141F4809190018F5F5B
:1008F0008093900181E080938901FF91EF919F9116
:100900008F912F910F900FBE0F901F9018951F92EF
:100910000F920FB60F9211248F9380918F0188232D
:1009200071F01F9B05C081E0809391018093890144
:1009300080916B00806880936B0010928F01809192
:10094000B100887F8093B1008F910F900FBE0F9000
:100950001F901895CF93DF93CDB7DEB728970FB6CA
:10096000F894DEBF0FBECDBF78940E94B6020E94FD
:100970009D010E9479010E9419030E9438030E9480
:10098000E4030E94F50381E08093860110928C01BC
:100990001092900110928B01809389011092910125
:1009A0000E94300210E000E0F12C80918401882345
:1009B00049F010928401BE016B5F7F4FCE0101961A
:1009C0000E94920360918E01809188010E949F0194
:1009D00080918901882349F39091900180918B0146
:1009E000981709F448C080919001E0918601082E83
:1009F000000C990BF0E0EE0FFF1FEA5EFE4F208126
:100A00003181821793075CF0E0918601F0E0EE0FF0
:100A1000FF1FEA5EFE4F808181508093900180919C
:100A2000900187FDF09290019091900180918B014F
:100A300089170CF068C08091900184300CF461C07B
:100A4000133009F05EC00F5FE09186018091900144
:100A5000F0E0EE0FFF1FE050FF4F0190F081E02D1E
:100A6000E80FF11D87FDFA9580818F3F21F4809179
:100A70008B018093900180919101882371F11092F4
:100A80009101E091860180919001F0E0EE0FFF1F4F
:100A9000E050FF4F0190F081E02DE80FF11D87FD40
:100AA000FA9580818093860180E0F12CE0918601A7
:100AB000F0E0EE0FFF1FE050FF4F0190F081E02DBE
:100AC000E80FF11D90819F3F79F1F09290018091A4
:100AD000900180938B011F2D00E0E0918601EB30A7
:100AE00080F5F0E0EA58FA4F0C940C069705AC0537
:100AF000BB05C405CD05D605DF05E805F105FA05FA
:100B000003061F5FA1CF9091900180918B019817F0
:100B10000CF09ACF111106C0002321F01091900122
:100B2000015092CF115090CF8F5FF82EBFCF0E940F
:100B3000300250E040E064E070E082EB90E00E9420
:100B400063028091860180938C0180919001809353
:100B50008B011092890129CF0E943002402F50E072
:100B600062E070E08EEA90E00E946302812F90E0E4
:100B70000E944A02E6CF0E943002402F50E064E01B
:100B800070E086EA90E0F0CF0E943002402F50E003
:100B900065E070E08CE990E0E7CF0E943002402FE2
:100BA00050E064E070E084E990E0DECF0E94300223
:100BB000402F50E064E070E08CE890E0D5CF0E94D8
:100BC0003002402F50E064E070E084E890E0CCCF49
:100BD0000E943002402F50E062E070E080E890E038
:100BE000C3CF0E943002402F50E064E070E088E7FD
:100BF00090E0BACF0E943002402F50E064E070E0F5
:100C000080E790E0B1CF0E943002402F50E064E0D6
:100C100070E088E690E0A8CFEE0FFF1F0590F491FA
:100C2000E02D0994FB01DC0105900D920020E1F715
:100C30000895AEE0B0E0EFE1F6E00C94C8080D894D
:100C40001E8986E08C831A8309838FEF9FE79E833A
:100C50008D83AE01475E5F4F6F89788DCE0101961F
:100C60000E943C062F813885020F131FF801108265
:100C70002E96E4E00C94E408ABE0B0E0E2E4F6E0A9
:100C80000C94BA087C013B018A01FC011782168290
:100C9000838181FFC8C1CE0101965C01F701938178
:100CA000F30193FD859193FF81913F01882309F41E
:100CB00053C1853239F493FD859193FF81913F01B2
:100CC000853229F4B70190E00E942C08E7CF912CDF
:100CD000212C312CFFE1F31538F08B3211F190F417
:100CE000803209F1833229F137FC3CC020ED280F16
:100CF0002A3050F536FE20C08AE0989E200D11243F
:100D0000922E06C08D3291F0803371F7689430F8DE
:100D1000F30193FD859193FF81913F018111DACF1A
:100D200021C0689431F8689432F8F2CF689433F8AF
:100D3000EFCF689434F8ECCFEAE02E9E200D11241A
:100D4000222E689435F8E4CF8E3229F436FC04C1A3
:100D5000689436F8DDCF8C3619F4689437F8D8CF1C
:100D60008836B1F2982F9F7D95549330E0F083360A
:100D7000A1F18337C1F1833509F063C02801F2E0A6
:100D80004F0E511CF801C080D180692D70E036FCF7
:100D900002C06FEF7FEFC6010E9416084C016894F5
:100DA00037F882010AC00C5F1F4FFFE3F9838824E4
:100DB0008394912C6501E89437F833FE2DC0522CB2
:100DC0008114910471F5552009F468CFB70180E2D0
:100DD00090E00E942C085A94F6CFF8018081898314
:100DE0000E5F1F4FE4CF2801F2E04F0E511CF801B7
:100DF000C080D180692D70E036FC02C06FEF7FEFBC
:100E0000C6010E9421084C018201D5CFB70180E2C2
:100E100090E00E942C082A942814190409F0B0F7D5
:100E2000CECFF60137FC859137FE81916F01B70176
:100E300090E00E942C0851105A94F1E08F1A91080A
:100E4000BFCF843619F0893609F077C0F80137FE34
:100E50006BC060817181828193810C5F1F4FF32D84
:100E6000FF763F2E97FF09C090958095709561950C
:100E70007F4F8F4F9F4F689437F82AE030E0A501ED
:100E80000E945C08C82ECA188C2C432C36FE0CC05D
:100E9000E89440F8C91440F434FE05C032FC03C0A5
:100EA000F32DFE7E4F2E892C44FE95C0FE01EC0DE5
:100EB000F11D8081803309F087C0242D297E422EC8
:100EC000842D8870582E43FC95C040FE8FC09C2C0A
:100ED000821418F42C0C922C981844FE91C0B7017F
:100EE00080E390E00E942C0842FE09C088E790E071
:100EF00041FE02C088E590E0B7010E942C08C914A9
:100F000008F48AC0CA94D12C9FEFC91AD90ACA0C16
:100F1000DB1CF60182916F01B70190E00E942C0862
:100F2000AC14BD04B1F74FCF60817181072E000C66
:100F3000880B990B0E5F1F4F92CFD32CE894D4F8F7
:100F40002AE030E0853739F1232D297FD22E8F36E4
:100F500001F148F48835A9F0F701868197812B9635
:100F6000E2E10C94D608803749F08837A9F7D4FE1F
:100F700002C06894D2F820E130E00DC06894D4F843
:100F8000F6CF34FE03C0822F8660D82E20E132E0F7
:100F900002C028E030E0F801D7FE0FC06081718107
:100FA000828193810C5F1F4FA5010E945C08C82EAF
:100FB000CA183D2CE89437F867CF6081718190E0C2
:100FC00080E00E5F1F4FF0CF42FC02C0839478CFC9
:100FD0008394839475CF842D867809F471CFF6CFEE
:100FE000B70180E290E00E942C0883948214C0F341
:100FF000512C73CF522C5818821408F46ECFF8CFAE
:10100000842D867809F47BCF8BE241FE80E247FC99
:101010008DE2B70190E071CFB70180E390E00E94CC
:101020002C089A946CCF8FEF9FEF99CFFC0105901D
:10103000615070400110D8F7809590958E0F9F1FDA
:101040000895FC016150704001900110D8F780951F
:1010500090958E0F9F1F08950F931F93CF93DF934B
:10106000182F092FEB018B8181FD09C01FEF0FEFB6
:10107000812F902FDF91CF911F910F91089582FFC3
:1010800014C02E813F818C819D81281739073CF443
:10109000E881F981CF0101969983888310838E813D
:1010A0009F8101969F838E83E3CFE885F985812F09
:1010B0000995892BA1F3DACFFA01AA27283051F13B
:1010C000203181F1E8946F936E7F6E5F7F4F8F4F79
:1010D0009F4FAF4FB1E03ED0B4E03CD0670F781FD8
:1010E000891F9A1FA11D680F791F8A1F911DA11DBD
:1010F0006A0F711D811D911DA11D20D009F46894F6
:101100003F912AE0269F11243019305D3193DEF69D
:10111000CF010895462F4770405D4193B3E00FD053
:10112000C9F7F6CF462F4F70405D4A3318F0495D3E
:1011300031FD4052419302D0A9F7EACFB4E0A69521
:101140009795879577956795BA95C9F70097610543
:10115000710508959B01AC010A2E06945795479599
:1011600037952795BA95C9F7620F731F841F951F8E
:10117000A01D08952F923F924F925F926F927F929F
:101180008F929F92AF92BF92CF92DF92EF92FF9297
:101190000F931F93CF93DF93CDB7DEB7CA1BDB0B43
:1011A0000FB6F894DEBF0FBECDBF09942A883988E8
:1011B00048885F846E847D848C849B84AA84B984EF
:1011C000C884DF80EE80FD800C811B81AA81B981FB
:1011D000CE0FD11D0FB6F894DEBF0FBECDBFED010F
:0611E0000895F894FFCF12
:1011E60051014F014B01460142013E013A013801CE
:1011F600340130012C010400020004000500040043
:10120600040004000200040004000400FFFFFF01C4
:10121600FFFFFF05FFFF0A09FFFFFFFFFF01FFFFBB
:101226000604FFFF0605FF04040401FFFFFF010398
:1012360002FFFFFFFF0040145400010100010000FF
:1012460001010000010001010052494748545F4C6A
:1012560044523A20004C4546545F4C44523A2000D2
:0412660025750000EA
:00000001FF
