:100000000C945A010C9477010C9477010C9413040E
:100010000C9430040C9477010C9477010C947701C4
:100020000C9477010C948D040C9477010C94C80106
:100030000C9477010C94DA010C9477010C947701FD
:100040000C94FE010C9477010C9477010C947701C9
:100050000C9477010C94E1030C9477010C947701D4
:100060000C9477010C947701E900D700C400BA0022
:100070002A0119010601FD0055014A013F0136011F
:1000800078016601A801920191018501CA01C901A7
:10009000C001BB011102FD01E901DA0137023202A0
:1000A0002B02260221025B024F024E02490273021A
:1000B0006A02A8029D028A0277024D61696E204D94
:1000C000656E7500616E642067657420736F6D6581
:1000D00020736861646500536D617274436861697F
:1000E00072212052656C6178005468616E6B2079D2
:1000F0006F7520666F72207573696E670041646466
:100100002074696D65005350462033302B20737581
:100110006E73637265656E2E00636F6E74696E75C3
:10012000652C206170706C7920005761726E696E69
:10013000673A20746F004164642074696D650053F0
:1001400065656B2073686164650073756E20697303
:100150002075702100596F75722074696D65206972
:100160006E207468650054696D652077696C6C2039
:10017000726573756D652E00506C656173652066E0
:100180006C69702100456E642073657373696F6ECE
:100190000000466C697020736964657320696E2085
:1001A0007878206D696E2E0054696D65206C6566E7
:1001B000743A207878206D696E2E004261636B007E
:1001C000436F6E74696E7565000054616E20666FD2
:1001D000723A207878206D696E00446966666572AF
:1001E000656E742054696D650054616E20666F728F
:1001F000207878206D696E757465733F006D696E47
:100200007574657320696E207468652073756E2E31
:10021000005765207265636F6D6D656E6420787838
:10022000004261636B004461726B004D65646975E7
:100230006D00466169720053656C65637420536B91
:10024000696E20547970653A004261636B00005416
:1002500068652055562069733A200055562052652E
:100260006164696E673A20787800436865636B2043
:1002700055560054616E002D2D2D2D2D2D2D2D2D1B
:100280002D2D2D2D2D2D2D2D2D002D2D2D2D2D2DCB
:100290002D2D2D2D2D2D2D2D2D2D2D2D00536D6121
:1002A000727443686169720057656C636F6D652095
:1002B000746F000011241FBECFEFD8E0DEBFCDBFAA
:1002C00011E0A0E0B1E0E0E6F0E102C005900D929F
:1002D000A434B107D9F721E0A4E4B1E001C01D9234
:1002E000A435B207E1F70E94AE040C942E080C94DA
:1002F000000010928500109284008EE197E09093A8
:1003000089008093880080EE97E490938700809323
:100310008600EFE6F0E0808183608083E0E8F0E033
:10032000808182608083E1E8F0E080818861808361
:100330008081826080832A9A0895229A0895681B9A
:10034000770B693071058CF080918800909189005D
:100350008232974048F480918800909189000196FC
:1003600090938900809388000895683F7F4F6CF4D4
:1003700080918800909189008A319740A8F38091FC
:100380008800909189000197EBCF8EE197E0E8CF4C
:100390001F920F920FB60F9211248F939F9385B1E6
:1003A00094E0892785B99F918F910F900FBE0F9090
:1003B0001F9018951F920F920FB60F9211242F9332
:1003C0003F934F935F936F937F938F939F93AF93DD
:1003D000BF93EF93FF930E94C801FF91EF91BF91EC
:1003E000AF919F918F917F916F915F914F913F91CD
:1003F0002F910F900FBE0F901F9018951F920F9284
:100400000FB60F9211240F900FBE0F901F901895EA
:100410009BB19F709BB99BB1807F892B8BB9299829
:10042000299A299A29980895CF93C82F0E940802E3
:100430008C2F8295807FCF910C94080228980E947F
:10044000140286E69EE00197F1F700000895E82F78
:10045000F0E0EA5EFE4F8081860F80680C941E02F9
:1004600081E00C941E02289A0E94140286E69EE007
:100470000197F1F700000895CF93DF93EC01FE019F
:1004800084912196811103C0DF91CF9108950E943C
:100490003302F5CFCF93C82F60E00E9427028EE38E
:1004A0000E94330260E08C2FCF910C942702CF93EF
:1004B000DF93EC018991811103C0DF91CF91089501
:1004C0000E943302F7CFAF92BF92CF92DF92EF92AA
:1004D000FF920F931F93CF93DF93CDB7DEB764974F
:1004E0000FB6F894DEBF0FBECDBF5C018B017A0161
:1004F00061E080E00E942702053011050CF43FC046
:10050000C8018E199F0904974CF4780184E0E81A19
:10051000F10801501109D12CC12C1AC087010C5FC0
:100520001F4FF9CFEE0FFF1FEA0DFB1D6591749170
:10053000CE0101960E944F05CE0101960E945702FE
:1005400061E081E08C0D0E9427028FEFC81AD80A63
:10055000F701EC0DFD1DE017F10724F364960FB6CB
:10056000F894DEBF0FBECDBFDF91CF911F910F91E9
:10057000FF90EF90DF90CF90BF90AF900895F12C57
:10058000E12CC9CF8AB1806F8AB984B1836084B904
:1005900028988FEF9BE60197F1F700C0000080E3F9
:1005A0000E9408028FEF93E20197F1F700C000006C
:1005B00080E30E9408028DED90E00197F1F780E35F
:1005C0000E94080286E69EE00197F1F7000080E2B3
:1005D0000E94080286E69EE00197F1F7000088E29B
:1005E0000E941E028FE00C941E0286E69EE0019798
:1005F000F1F7000008959093C5008093C400E1ECEA
:10060000F0E080818860808380818061808386E0E3
:100610008093C20008959091C00095FFFCCF809315
:10062000C60008958091C00087FFFCCF8091C6006E
:100630000895CF93DF93EC018991811103C0DF917D
:10064000CF9108950E940B03F7CFEAE7F0E0808195
:1006500080688083ACE7B0E08C9180628C938C9151
:1006600080648C93808188608083808186608083B1
:10067000808180628083EBE7F0E08081846080830A
:100680008C9182608C93089585B5856085BDEEE67A
:10069000F0E080818160808308950F931F93CF9352
:1006A000DF938C01EB0190914D01809152019817DD
:1006B000E9F081E00E941E0260E080E00E942702D3
:1006C0008AE291E00E945702C8010E94570260E04E
:1006D00081E00E94270286E391E00E945702CE014A
:1006E0000E94570280914D018093520190914801E0
:1006F00080914C019817E9F081E00E941E0260E0B1
:1007000080E00E9427028AE291E00E945702C8011D
:100710000E94570260E081E00E94270286E391E098
:100720000E945702CE010E94570280914801809397
:100730004C01DF91CF911F910F91089520917C0082
:100740002F70233019F52091790020934D012091CD
:100750007C00207F20937C0020917C0022602093ED
:100760007C00FC01108220914D011F922F9321E407
:1007700031E03F932F939F938F930E9456050F90E4
:100780000F900F900F900F900F9008958091790027
:100790008093480180917C00807F80937C008091D1
:1007A0007C00836080937C00FB0110828091480173
:1007B0001F928F9381E491E09F938F937F936F9328
:1007C000DCCF1F920F920FB60F9211248F9381E00E
:1007D000809344018F910F900FBE0F901F9018953A
:1007E000E8E6F0E0808181608083EBE6F0E08081E4
:1007F00080688083E0E7F0E0808181608083B89A40
:100800000895E8E6F0E0808182608083ECE6F0E025
:1008100080818360808388B1836088B910924701AA
:100820001092530108951F920F920FB60F92112448
:100830008F93EF93FF93EBE6F0E080818F778083D7
:1008400081E080934E01E1EBF0E080818560808360
:10085000FF91EF918F910F900FBE0F901F90189501
:100860001F920F920FB60F9211242F938F939F9385
:10087000EF93FF9386B180934A0180914A01817082
:100880008093500180914A0182708093450180914C
:100890004701880F880F8093470180915001209174
:1008A000450190914701822B892B809347018091CC
:1008B00047018F7080934701E0914701F0E0E65EC9
:1008C000FE4F80818823F9F0809153018295807FCB
:1008D000809353019091470180915301892B80931C
:1008E0005301809153018B3229F480915101815041
:1008F0008093510180915301873129F480915101F6
:100900008F5F80935101FF91EF919F918F912F9174
:100910000F900FBE0F901F9018951F920F920FB659
:100920000F9211248F9380914E01882361F01F9BB9
:1009300003C081E080934F0180916B0080688093B9
:100940006B0010924E018091B100887F8093B100BE
:100950008F910F900FBE0F901F901895CF93DF933C
:10096000CDB7DEB728970FB6F894DEBF0FBECDBF68
:1009700078940E94C2020E949D010E9479010E9407
:1009800025030E9444030E94F0030E940104109278
:10099000460181E080934B011092510180934901FF
:1009A00010924F01109251010E9430028091440137
:1009B000882349F010924401BE016B5F7F4FCE0146
:1009C00001960E949E0360914D01809148010E9412
:1009D0009F0180914901882349F3E0914601EB3062
:1009E000E8F4F0E0E850FB4F50E040E00C9449059B
:1009F000030515051A05210526052B0530053505C6
:100A00003A053F05440564E070E082EB90E00E9407
:100A100063028091510190E00E944A028091460158
:100A200080934B0110924901C1CF62E070E08EEAE1
:100A300090E0EDCF64E070E086EA90E00E9463020F
:100A4000EDCF65E070E08CE990E0F8CF64E070E015
:100A500084E990E0F3CF64E070E08CE890E0EECFC2
:100A600064E070E084E890E0E9CF62E070E080E864
:100A700090E0E4CF64E070E088E790E0DFCF64E0EE
:100A800070E080E790E0DACF64E070E088E690E024
:100A9000D5CFEE0FFF1F0590F491E02D0994FB01D7
:100AA000DC0105900D920020E1F70895AEE0B0E082
:100AB000ECE5F5E00C9405080D891E8986E08C8331
:100AC0001A8309838FEF9FE79E838D83AE01475E74
:100AD0005F4F6F89788DCE0101960E9479052F8135
:100AE0003885020F131FF80110822E96E4E00C9453
:100AF0002108ABE0B0E0EFE7F5E00C94F7077C01EC
:100B00003B018A01FC0117821682838181FFC8C1E3
:100B1000CE0101965C01F7019381F30193FD85916C
:100B200093FF81913F01882309F453C1853239F441
:100B300093FD859193FF81913F01853229F4B7019F
:100B400090E00E946907E7CF912C212C312CFFE126
:100B5000F31538F08B3211F190F4803209F18332C1
:100B600029F137FC3CC020ED280F2A3050F536FE25
:100B700020C08AE0989E200D1124922E06C08D324E
:100B800091F0803371F7689430F8F30193FD85910B
:100B900093FF81913F018111DACF21C0689431F830
:100BA000689432F8F2CF689433F8EFCF689434F851
:100BB000ECCFEAE02E9E200D1124222E689435F809
:100BC000E4CF8E3229F436FC04C1689436F8DDCFC8
:100BD0008C3619F4689437F8D8CF8836B1F2982F4C
:100BE0009F7D95549330E0F08336A1F18337C1F1B6
:100BF000833509F063C02801F2E04F0E511CF80163
:100C0000C080D180692D70E036FC02C06FEF7FEFAD
:100C1000C6010E9453074C01689437F882010AC04C
:100C20000C5F1F4FFFE3F98388248394912C6501A7
:100C3000E89437F833FE2DC0522C8114910471F5DD
:100C4000552009F468CFB70180E290E00E9469075F
:100C50005A94F6CFF801808189830E5F1F4FE4CF4D
:100C60002801F2E04F0E511CF801C080D180692D9F
:100C700070E036FC02C06FEF7FEFC6010E945E0796
:100C80004C018201D5CFB70180E290E00E94690754
:100C90002A942814190409F0B0F7CECFF60137FCD6
:100CA000859137FE81916F01B70190E00E9469073D
:100CB00051105A94F1E08F1A9108BFCF843619F081
:100CC000893609F077C0F80137FE6BC06081718109
:100CD000828193810C5F1F4FF32DFF763F2E97FF8C
:100CE00009C090958095709561957F4F8F4F9F4F6C
:100CF000689437F82AE030E0A5010E949907C82ED1
:100D0000CA188C2C432C36FE0CC0E89440F8C91449
:100D100040F434FE05C032FC03C0F32DFE7E4F2E9E
:100D2000892C44FE95C0FE01EC0DF11D80818033BD
:100D300009F087C0242D297E422E842D8870582EDC
:100D400043FC95C040FE8FC09C2C821418F42C0CE0
:100D5000922C981844FE91C0B70180E390E00E9465
:100D6000690742FE09C088E790E041FE02C088E5BD
:100D700090E0B7010E946907C91408F48AC0CA94B8
:100D8000D12C9FEFC91AD90ACA0CDB1CF60182913B
:100D90006F01B70190E00E946907AC14BD04B1F780
:100DA0004FCF60817181072E000C880B990B0E5F6D
:100DB0001F4F92CFD32CE894D4F82AE030E0853747
:100DC00039F1232D297FD22E8F3601F148F4883551
:100DD000A9F0F701868197812B96E2E10C94130824
:100DE000803749F08837A9F7D4FE02C06894D2F85A
:100DF00020E130E00DC06894D4F8F6CF34FE03C093
:100E0000822F8660D82E20E132E002C028E030E058
:100E1000F801D7FE0FC060817181828193810C5FE0
:100E20001F4FA5010E949907C82ECA183D2CE894AF
:100E300037F867CF6081718190E080E00E5F1F4FCF
:100E4000F0CF42FC02C0839478CF8394839475CF13
:100E5000842D867809F471CFF6CFB70180E290E057
:100E60000E94690783948214C0F3512C73CF522CD3
:100E70005818821408F46ECFF8CF842D867809F4C0
:100E80007BCF8BE241FE80E247FC8DE2B70190E030
:100E900071CFB70180E390E00E9469079A946CCF0C
:100EA0008FEF9FEF99CFFC010590615070400110CA
:100EB000D8F7809590958E0F9F1F0895FC01615083
:100EC000704001900110D8F7809590958E0F9F1F6C
:100ED00008950F931F93CF93DF93182F092FEB01E2
:100EE0008B8181FD09C01FEF0FEF812F902FDF91C4
:100EF000CF911F910F91089582FF14C02E813F81E1
:100F00008C819D81281739073CF4E881F981CF0154
:100F100001969983888310838E819F8101969F8398
:100F20008E83E3CFE885F985812F0995892BA1F37D
:100F3000DACFFA01AA27283051F1203181F1E89463
:100F40006F936E7F6E5F7F4F8F4F9F4FAF4FB1E0BC
:100F50003ED0B4E03CD0670F781F891F9A1FA11DB7
:100F6000680F791F8A1F911DA11D6A0F711D811DB8
:100F7000911DA11D20D009F468943F912AE0269F7D
:100F800011243019305D3193DEF6CF010895462FDC
:100F90004770405D4193B3E00FD0C9F7F6CF462FBD
:100FA0004F70405D4A3318F0495D31FD4052419326
:100FB00002D0A9F7EACFB4E0A695979587957795E3
:100FC0006795BA95C9F700976105710508959B016A
:100FD000AC010A2E06945795479537952795BA95F3
:100FE000C9F7620F731F841F951FA01D08952F92CC
:100FF0003F924F925F926F927F928F929F92AF92A9
:10100000BF92CF92DF92EF92FF920F931F93CF93F5
:10101000DF93CDB7DEB7CA1BDB0B0FB6F894DEBF8C
:101020000FBECDBF09942A88398848885F846E84B2
:101030007D848C849B84AA84B984C884DF80EE80FC
:10104000FD800C811B81AA81B981CE0FD11D0FB605
:10105000F894DEBF0FBECDBFED010895F894FFCF29
:101060000400040004000200040004000400050061
:1010700004000200040000401454000101000100BB
:101080000001010000010001010052494748545F7E
:101090004C44523A20004C4546545F4C44523A204E
:0410A00000257500B2
:00000001FF
