:100000000C945A010C9477010C9477010C94DD0345
:100010000C94FA030C9477010C9477010C947701FB
:100020000C9477010C945D040C9477010C94C80136
:100030000C9477010C94DA010C9477010C947701FD
:100040000C94FE010C9477010C9477010C947701C9
:100050000C9477010C94AB030C9477010C9477010A
:100060000C9477010C947701E900D700C400BA0022
:100070002A0119010601FD0055014A013F0136011F
:1000800078016601A801920191018501CA01C901A7
:10009000C001BB011102FD01E901DA0137023202A0
:1000A0002B02260221025B024F024E02490273021A
:1000B0006A02A8029D028A0277024D61696E204D94
:1000C000656E7500616E642067657420736F6D6581
:1000D00020736861646500536D617274436861697F
:1000E00072212052656C6178005468616E6B2079D2
:1000F0006F7520666F72207573696E670041646466
:100100002074696D65005350462033302B20737581
:100110006E73637265656E2E00636F6E74696E75C3
:10012000652C206170706C7920005761726E696E69
:10013000673A20746F004164642074696D650053F0
:1001400065656B2073686164650073756E20697303
:100150002075702100596F75722074696D65206972
:100160006E207468650054696D652077696C6C2039
:10017000726573756D652E00506C656173652066E0
:100180006C69702100456E642073657373696F6ECE
:100190000000466C697020736964657320696E2085
:1001A0007878206D696E2E0054696D65206C6566E7
:1001B000743A207878206D696E2E004261636B007E
:1001C000436F6E74696E7565000054616E20666FD2
:1001D000723A207878206D696E00446966666572AF
:1001E000656E742054696D650054616E20666F728F
:1001F000207878206D696E757465733F006D696E47
:100200007574657320696E207468652073756E2E31
:10021000005765207265636F6D6D656E6420787838
:10022000004261636B004461726B004D65646975E7
:100230006D00466169720053656C65637420536B91
:10024000696E20547970653A004261636B00005416
:1002500068652055562069733A200055562052652E
:100260006164696E673A20787800436865636B2043
:1002700055560054616E002D2D2D2D2D2D2D2D2D1B
:100280002D2D2D2D2D2D2D2D2D002D2D2D2D2D2DCB
:100290002D2D2D2D2D2D2D2D2D2D2D2D00536D6121
:1002A000727443686169720057656C636F6D652095
:1002B000746F000011241FBECFEFD8E0DEBFCDBFAA
:1002C00012E0A0E0B1E0E6EBF9E102C005900D928A
:1002D000AA33B107D9F722E0AAE3B2E001C01D9228
:1002E000A435B207E1F70E9491060C94D90C0C9446
:1002F000000010928500109284008EE197E09093A8
:1003000089008093880080EE97E490938700809323
:100310008600EFE6F0E0808183608083E0E8F0E033
:10032000808182608083E1E8F0E080818861808361
:100330008081826080832A9A0895229A0895681B9A
:10034000770B693071058CF080918800909189005D
:100350008232974048F480918800909189000196FC
:1003600090938900809388000895683F7F4F6CF4D4
:1003700080918800909189008A319740A8F38091FC
:100380008800909189000197EBCF8EE197E0E8CF4C
:100390001F920F920FB60F9211248F939F9385B1E6
:1003A00094E0892785B99F918F910F900FBE0F9090
:1003B0001F9018951F920F920FB60F9211242F9332
:1003C0003F934F935F936F937F938F939F93AF93DD
:1003D000BF93EF93FF930E94C801FF91EF91BF91EC
:1003E000AF919F918F917F916F915F914F913F91CD
:1003F0002F910F900FBE0F901F9018951F920F9284
:100400000FB60F9211240F900FBE0F901F901895EA
:100410009BB19F709BB99BB1807F892B8BB9299829
:10042000299A299A29980895CF93C82F0E940802E3
:100430008C2F8295807FCF910C94080228980E947F
:10044000140286E69EE00197F1F700000895E82F78
:10045000F0E0E550FE4F8081860F80680C941E020C
:1004600081E00C941E02289A0E94140286E69EE007
:100470000197F1F700000895CF93DF93EC01FE019F
:1004800084912196811103C0DF91CF9108950E943C
:100490003302F5CFCF93C82F60E00E9427028EE38E
:1004A0000E94330260E08C2FCF910C942702CF93EF
:1004B000DF93EC018991811103C0DF91CF91089501
:1004C0000E943302F7CFAF92BF92CF92DF92EF92AA
:1004D000FF920F931F93CF93DF93CDB7DEB764974F
:1004E0000FB6F894DEBF0FBECDBF5C017B016A0181
:1004F00061E080E00E94270285E0E816F1049CF1AB
:10050000760184E0E80EF11C10E000E015C0EE0F6B
:10051000FF1FEA0DFB1D65917491CE0101960E94AB
:10052000EC09CE0101960E94570261E081E0800F44
:100530000E9427020F5F1F4FF601E00FF11FEE151B
:10054000FF052CF364960FB6F894DEBF0FBECDBF47
:10055000DF91CF911F910F91FF90EF90DF90CF909F
:10056000BF90AF900895D12CC12CCECF8AB1806FAF
:100570008AB984B1836084B928988FEF9BE601978C
:10058000F1F700C0000080E30E9408028FEF93E2C1
:100590000197F1F700C0000080E30E9408028DED92
:1005A00090E00197F1F780E30E94080286E69EE062
:1005B0000197F1F7000080E20E94080286E69EE0C3
:1005C0000197F1F7000088E20E941E028FE00C9470
:1005D0001E0286E69EE00197F1F700000895EAE723
:1005E000F0E0808180688083ACE7B0E08C9180622D
:1005F0008C938C9180648C938081886080838081CF
:1006000086608083808180628083EBE7F0E0808178
:10061000846080838C9182608C93089585B5856019
:1006200085BDEEE6F0E080818160808308950F93C0
:100630001F93CF93DF938C01EB0190914302809144
:1006400048029817E9F081E00E941E0260E080E015
:100650000E9427028FE092E00E945702C8010E9488
:10066000570260E081E00E9427028BE192E00E9445
:100670005702CE010E9457028091430280934802A4
:1006800090913E02809142029817E9F081E00E9429
:100690001E0260E080E00E9427028FE092E00E944C
:1006A0005702C8010E94570260E081E00E942702C1
:1006B0008BE192E00E945702CE010E945702809186
:1006C0003E0280934202DF91CF911F910F910895D6
:1006D00020917C002F70233019F520917900209310
:1006E000430220917C00207F20937C0020917C009D
:1006F000226020937C00FC011082209143021F9213
:100700002F9326E232E03F932F939F938F930E9483
:10071000010A0F900F900F900F900F900F90089577
:100720008091790080933E0280917C00807F80934D
:100730007C0080917C00836080937C00FB011082B0
:1007400080913E021F928F9386E292E09F938F9357
:100750007F936F93DCCF1F920F920FB60F921124ED
:100760008F9381E080933A028F910F900FBE0F908C
:100770001F901895E8E6F0E0808181608083EBE6C9
:10078000F0E0808180688083E0E7F0E08081816034
:100790008083B89A0895E8E6F0E0808182608083E3
:1007A000ECE6F0E080818360808388B1836088B963
:1007B00010923D021092490208951F920F920FB6B7
:1007C0000F9211248F93EF93FF93EBE6F0E080817B
:1007D0008F77808381E080934402E1EBF0E08081B9
:1007E00085608083FF91EF918F910F900FBE0F90E6
:1007F0001F9018951F920F920FB60F9211242F93EE
:100800008F939F93EF93FF9386B1809340028091E3
:1008100040028170809347028091400282708093F1
:100820003B0280913D02880F880F80933D028091AA
:10083000470220913B0290913D02822B892B8093AD
:100840003D0280913D028F7080933D02E0913D0218
:10085000F0E0E150FE4F8081882329F18091490228
:100860008295807F8093490290913D028091490258
:10087000892B80934902809149028B3241F4809107
:10088000450281508093450281E080933F02809130
:100890004902873141F4809145028F5F8093450280
:1008A00081E080933F02FF91EF919F918F912F9173
:1008B0000F900FBE0F901F9018951F920F920FB6BA
:1008C0000F9211248F9380914402882371F01F9B13
:1008D00005C081E08093460280933F0280916B00C7
:1008E000806880936B00109244028091B100887FF1
:1008F0008093B1008F910F900FBE0F901F901895AD
:100900001092B9008DE18093B80008950F931F9362
:10091000A82F4115510509F468C084EA8093BC00F2
:100920008091BC0087FFFCCF8091B900887F883020
:1009300031F58A2F8E7F8093BB0084E88093BC00C2
:100940008091BC0087FFFCCF8091B900887F8831FF
:10095000C9F08032A1F494E99093BC0010C0819159
:100960008093BB006093BC008091BC0087FFFCCFEC
:100970008091B900887F883249F0803361F31F91FC
:100980000F910895FB01460F571F64E84E175F074C
:1009900031F740E10115110569F514C0F90194EC36
:1009A0000130110589F484E88093BC008091BC007B
:1009B00087FFFCCF8091B900887F883501F780914F
:1009C000BB00808380E0C7CF9093BC008091BC00C7
:1009D00087FFFCCF8091B900887F015011098035D5
:1009E00071F68091BB008193DBCF80E0011511058A
:1009F00031F248E084EA8093BC008091BC0087FF1C
:100A0000FCCF8091B900887F4813B9CFA160A09333
:100A1000BB0084E88093BC008091BC0087FFFCCFC2
:100A20008091B900887F803409F4B8CF883409F008
:100A3000A6CF91CF0F931F93CF93DF9300D0CDB765
:100A4000DEB702E010E09E012F5F3F4F42E050E032
:100A5000BC0180E20E94860430E020E0811126C0C3
:100A6000898141E050E030E020E0EAE0811111C0EE
:100A70008A81EAE08823D1F06E2F0E94EF07949FCD
:100A8000B001959F700D1124260F371F440F551F7D
:100A9000F1CF6E2F0E94EF07949FB001959F700DCC
:100AA0001124260F371F440F551FE0CFB901330F14
:100AB000880B990B0E94A6080F900F90DF91CF91A1
:100AC0001F910F9108954F925F926F927F928F9234
:100AD0009F92AF92BF92CF92DF92EF92FF92CF930D
:100AE000DF93CDB7DEB728970FB6F894DEBF0FBE01
:100AF000CDBF87E08C8389E08B838AE08A838BE09B
:100B00008983CE0104960E941A052B013C01CE0177
:100B100003960E941A056D837E838F839887CE018A
:100B200002960E941A054B015C01CE0101960E94BB
:100B30001A056B017C012BE734E14EE050E4C5015E
:100B4000B4010E9432099B01AC01C301B2010E94B1
:100B500001082B013C0121E73DE34AEA5FE3C701BD
:100B6000B6010E9432099B01AC01C301B2010E948F
:100B7000010826E03FE74FEB5AE30E9432092B01C0
:100B80003C012DEC3CEC4CE350E4C501B4010E9467
:100B900032099B01AC016D817E818F8198850E9415
:100BA00001084B015C0122E538EB4EED5FE3C70124
:100BB000B6010E9432099B01AC01C501B4010E943B
:100BC000010824EC3DEC49E25BE30E9432099B0101
:100BD000AC01C301B2010E94020820E030E040E015
:100BE0005FE30E94320920E030E040E252E40E94DC
:100BF00032090E949F090E946E08CB0128960FB609
:100C0000F894DEBF0FBECDBFDF91CF91FF90EF9084
:100C1000DF90CF90BF90AF909F908F907F906F901C
:100C20005F904F9008950F931F93CF93DF93CDB7AD
:100C3000DEB761970FB6F894DEBF0FBECDBF8B0154
:100C400085E0E9E2F2E0DE011D9601900D928A95C1
:100C5000E1F787E0EEE2F2E0DE01119601900D92FD
:100C60008A95E1F785E0E5E3F2E0DE011896019070
:100C70000D928A95E1F744E050E0BE01635F7F4F3B
:100C8000C8010E94F309892B09F146E050E0BE013A
:100C90006F5F7F4FC8010E94F309892BD1F044E0B8
:100CA00050E0BE01685F7F4FC8010E94F309892BA5
:100CB00099F48CE390E061960FB6F894DEBF0FBE16
:100CC000CDBFDF91CF911F910F91089588E290E001
:100CD000F2CF82E390E0EFCF90E080E0ECCF909312
:100CE000C5008093C400E1ECF0E0808188608083DF
:100CF00086E08093C20008959091C00095FFFCCFDC
:100D00008093C6000895CF93DF93EC018881811111
:100D100003C0DF91CF9108950E947C06F7CF0C9419
:100D20008306CF93DF93CDB7DEB728970FB6F8943D
:100D3000DEBF0FBECDBF78940E94B6020E949D0117
:100D40000E9479010E94EF020E940E030E94BA03E2
:100D50000E94CB030E9480048FE290E00E946F0605
:100D600081E080933C0210924502109241028093F0
:100D70003F02109246020E94300250E040E064E0E0
:100D800070E082EB90E00E9463028CE00E941E0201
:100D90002FEF8FE793E4215080409040E1F700C0AF
:100DA00000008FE00E941E0210E000E080913A02F5
:100DB000882349F010923A02BE016B5F7F4FCE014B
:100DC00001960E9468036091430280913E020E9456
:100DD0009F0180913F02882349F3909145028091C1
:100DE0004102891714F5E0913C02812F800FF0E059
:100DF000EE0FFF1FEA5EFE4F908191509817A9F108
:100E0000133009F075C0E0913C020F5FF0E0EE0F87
:100E1000FF1FE050FF4F0190F081E02DE80FF11D22
:100E200081818F3F11F512E020C0909145028091A1
:100E300041029817D4F4E0913C02F0E0EE0FFF1F5E
:100E4000E050FF4F80819181E12FE00FE80FF92FF3
:100E5000F11D31978081111145C0102F002329F019
:100E6000015011E08F3F09F010E080914602882385
:100E700029F110924602E0913C02F0E0EE0FFF1FD4
:100E8000E050FF4F80819181810F911D080F192F34
:100E9000111DF801808180933C0210E0E0913C023A
:100EA000F0E0EE0FFF1FE050FF4F0190F081E02DCA
:100EB000E10FF11D80818F3FF9F000E0E0913C02ED
:100EC000EB3030F5F0E0E959F84F0C94FB077E0762
:100ED0008F079E07A707B007B907C207CB07D4073C
:100EE000DD07E6078F3F31F4002309F4BECF015040
:100EF0001F5FBBCF1150B9CF1F5FD0CF0E94300210
:100F000050E040E064E070E082EB90E00E94630219
:100F1000109241021092450210923F0247CF0E9468
:100F20003002402F50E062E070E08EEA90E00E94D4
:100F30006302812F90E00E944A02EACF0E943002B1
:100F4000402F50E064E070E086EA90E0F0CF0E942D
:100F50003002402F50E065E070E08CE990E0E7CF90
:100F60000E943002402F50E064E070E084E990E09D
:100F7000DECF0E943002402F50E064E070E08CE849
:100F800090E0D5CF0E943002402F50E064E070E046
:100F900084E890E0CCCF0E943002402F50E062E025
:100FA00070E080E890E0C3CF0E943002402F50E014
:100FB00064E070E088E790E0BACF0E943002402FF2
:100FC00050E064E070E080E790E0B1CF0E94300232
:100FD000402F50E064E070E088E690E0A8CF991BD5
:100FE00079E004C0991F961708F0961B881F7A9520
:100FF000C9F780950895EE0FFF1F0590F491E02D3D
:1010000009945058BB27AA270E9419080C94F80885
:101010000E94EA0838F00E94F10820F039F49F3F5E
:1010200019F426F40C94E7080EF4E095E7FB0C9411
:10103000E108E92F0E94090958F3BA1762077307FC
:101040008407950720F079F4A6F50C942B090EF48B
:10105000E0950B2EBA2FA02D0B01B90190010C01C8
:10106000CA01A0011124FF27591B99F0593F50F4E0
:10107000503E68F11A16F040A22F232F342F442738
:10108000585FF3CF469537952795A795F040539530
:10109000C9F77EF41F16BA0B620B730B840BBAF000
:1010A0009150A1F0FF0FBB1F661F771F881FC2F76B
:1010B0000EC0BA0F621F731F841F48F4879577957F
:1010C0006795B795F7959E3F08F0B0CF9395880F39
:1010D00008F09927EE0F9795879508950E94750857
:1010E0006894B1110C942C0908950E94110988F09C
:1010F0009F5798F0B92F9927B751B0F0E1F0660FDC
:10110000771F881F991F1AF0BA95C9F714C0B1301C
:1011100091F00E942B09B1E008950C942B09672FE0
:10112000782F8827B85F39F0B93FCCF3869577954B
:101130006795B395D9F73EF4909580957095619534
:101140007F4F8F4F9F4F0895E89409C097FB3EF45F
:1011500090958095709561957F4F8F4F9F4F992304
:10116000A9F0F92F96E9BB279395F6958795779582
:101170006795B795F111F8CFFAF4BB0F11F460FF42
:101180001BC06F5F7F4F8F4F9F4F16C0882311F09A
:1011900096E911C0772321F09EE8872F762F05C0AE
:1011A000662371F096E8862F70E060E02AF09A9549
:1011B000660F771F881FDAF7880F9695879597F93E
:1011C000089597F99F6780E870E060E008959FEFC9
:1011D00080EC089500240A941616170618060906CE
:1011E000089500240A94121613061406050608959D
:1011F000092E0394000C11F4882352F0BB0F40F425
:10120000BF2B11F460FF04C06F5F7F4F8F4F9F4F64
:10121000089557FD9058440F551F59F05F3F71F0E6
:101220004795880F97FB991F61F09F3F79F087954D
:101230000895121613061406551FF2CF4695F1DFD6
:1012400008C0161617061806991FF1CF8695710566
:10125000610508940895E894BB2766277727CB019A
:1012600097F908950E9445090C94F8080E94EA082D
:1012700038F00E94F10820F0952311F00C94E10859
:101280000C94E70811240C942C090E94090970F3AE
:10129000959FC1F3950F50E0551F629FF001729F1B
:1012A000BB27F00DB11D639FAA27F00DB11DAA1F2A
:1012B000649F6627B00DA11D661F829F2227B00D77
:1012C000A11D621F739FB00DA11D621F839FA00D02
:1012D000611D221F749F3327A00D611D231F849F52
:1012E000600D211D822F762F6A2F11249F575040A9
:1012F0009AF0F1F088234AF0EE0FFF1FBB1F661F24
:10130000771F881F91505040A9F79E3F510580F0EC
:101310000C94E1080C942C095F3FE4F3983ED4F35D
:10132000869577956795B795F795E7959F5FC1F790
:10133000FE2B880F911D9695879597F908950E9429
:101340001109E8F09E37E8F09639B8F49E3848F471
:10135000672F782F8827985FF9CF869577956795BF
:1013600093959539D0F3B62FB1706B0F711D811D18
:1013700020F487957795679593950C94C3090C9401
:10138000DE090C942C09882371F4772321F09850FE
:10139000872B762F07C0662311F499270DC0905133
:1013A000862B70E060E02AF09A95660F771F881F01
:1013B000DAF7880F9695879597F908959F3F31F052
:1013C000915020F4879577956795B795880F911D73
:1013D0009695879597F90895FB01DC0105900D928C
:1013E0000020E1F70895FB01DC014150504030F04E
:1013F0008D910190801919F40020B9F7881B990B81
:101400000895AEE0B0E0E7E0FAE00C94B00C0D898E
:101410001E8986E08C831A8309838FEF9FE79E8362
:101420008D83AE01475E5F4F6F89788DCE01019647
:101430000E94240A2F813885020F131FF8011082A1
:101440002E96E4E00C94CC0CABE0B0E0EAE2FAE0DB
:101450000C94A20C7C013B018A01FC0117821682CC
:10146000838181FFC8C1CE0101965C01F7019381A0
:10147000F30193FD859193FF81913F01882309F446
:1014800053C1853239F493FD859193FF81913F01DA
:10149000853229F4B70190E00E94140CE7CF912C1B
:1014A000212C312CFFE1F31538F08B3211F190F43F
:1014B000803209F1833229F137FC3CC020ED280F3E
:1014C0002A3050F536FE20C08AE0989E200D112467
:1014D000922E06C08D3291F0803371F7689430F807
:1014E000F30193FD859193FF81913F018111DACF43
:1014F00021C0689431F8689432F8F2CF689433F8D8
:10150000EFCF689434F8ECCFEAE02E9E200D112442
:10151000222E689435F8E4CF8E3229F436FC04C1CB
:10152000689436F8DDCF8C3619F4689437F8D8CF44
:101530008836B1F2982F9F7D95549330E0F0833632
:10154000A1F18337C1F1833509F063C02801F2E0CE
:101550004F0E511CF801C080D180692D70E036FC1F
:1015600002C06FEF7FEFC6010E94FE0B4C01689432
:1015700037F882010AC00C5F1F4FFFE3F98388240C
:101580008394912C6501E89437F833FE2DC0522CDA
:101590008114910471F5552009F468CFB70180E2F8
:1015A00090E00E94140C5A94F6CFF8018081898350
:1015B0000E5F1F4FE4CF2801F2E04F0E511CF801DF
:1015C000C080D180692D70E036FC02C06FEF7FEFE4
:1015D000C6010E94090C4C018201D5CFB70180E2FF
:1015E00090E00E94140C2A942814190409F0B0F712
:1015F000CECFF60137FC859137FE81916F01B7019F
:1016000090E00E94140C51105A94F1E08F1A910846
:10161000BFCF843619F0893609F077C0F80137FE5C
:101620006BC060817181828193810C5F1F4FF32DAC
:10163000FF763F2E97FF09C0909580957095619534
:101640007F4F8F4F9F4F689437F82AE030E0A50115
:101650000E94440CC82ECA188C2C432C36FE0CC099
:10166000E89440F8C91440F434FE05C032FC03C0CD
:10167000F32DFE7E4F2E892C44FE95C0FE01EC0D0D
:10168000F11D8081803309F087C0242D297E422EF0
:10169000842D8870582E43FC95C040FE8FC09C2C32
:1016A000821418F42C0C922C981844FE91C0B701A7
:1016B00080E390E00E94140C42FE09C088E790E0AD
:1016C00041FE02C088E590E0B7010E94140CC914E5
:1016D00008F48AC0CA94D12C9FEFC91AD90ACA0C3F
:1016E000DB1CF60182916F01B70190E00E94140C9F
:1016F000AC14BD04B1F74FCF60817181072E000C8F
:10170000880B990B0E5F1F4F92CFD32CE894D4F81F
:101710002AE030E0853739F1232D297FD22E8F360C
:1017200001F148F48835A9F0F701868197812B965D
:10173000E2E10C94BE0C803749F08837A9F7D4FE5B
:1017400002C06894D2F820E130E00DC06894D4F86B
:10175000F6CF34FE03C0822F8660D82E20E132E01F
:1017600002C028E030E0F801D7FE0FC0608171812F
:10177000828193810C5F1F4FA5010E94440CC82EEB
:10178000CA183D2CE89437F867CF6081718190E0EA
:1017900080E00E5F1F4FF0CF42FC02C0839478CFF1
:1017A0008394839475CF842D867809F471CFF6CF16
:1017B000B70180E290E00E94140C83948214C0F37D
:1017C000512C73CF522C5818821408F46ECFF8CFD6
:1017D000842D867809F47BCF8BE241FE80E247FCC2
:1017E0008DE2B70190E071CFB70180E390E00E94F5
:1017F000140C9A946CCF8FEF9FEF99CFFC0105905A
:10180000615070400110D8F7809590958E0F9F1F02
:101810000895FC016150704001900110D8F7809547
:1018200090958E0F9F1F08950F931F93CF93DF9373
:10183000182F092FEB018B8181FD09C01FEF0FEFDE
:10184000812F902FDF91CF911F910F91089582FFEB
:1018500014C02E813F818C819D81281739073CF46B
:10186000E881F981CF0101969983888310838E8165
:101870009F8101969F838E83E3CFE885F985812F31
:101880000995892BA1F3DACFFA01AA27283051F163
:10189000203181F1E8946F936E7F6E5F7F4F8F4FA1
:1018A0009F4FAF4FB1E03ED0B4E03CD0670F781F00
:1018B000891F9A1FA11D680F791F8A1F911DA11DE5
:1018C0006A0F711D811D911DA11D20D009F468941E
:1018D0003F912AE0269F11243019305D3193DEF6C6
:1018E000CF010895462F4770405D4193B3E00FD07C
:1018F000C9F7F6CF462F4F70405D4A3318F0495D67
:1019000031FD4052419302D0A9F7EACFB4E0A69549
:101910009795879577956795BA95C9F7009761056B
:10192000710508959B01AC010A2E069457954795C1
:1019300037952795BA95C9F7620F731F841F951FB6
:10194000A01D08952F923F924F925F926F927F92C7
:101950008F929F92AF92BF92CF92DF92EF92FF92BF
:101960000F931F93CF93DF93CDB7DEB7CA1BDB0B6B
:101970000FB6F894DEBF0FBECDBF09942A88398810
:1019800048885F846E847D848C849B84AA84B98417
:10199000C884DF80EE80FD800C811B81AA81B98123
:1019A000CE0FD11D0FB6F894DEBF0FBECDBFED0137
:0619B0000895F894FFCF3A
:1019B600F701F501F101EC01E801E401E001DE01C6
:1019C600DA01D601D2010400020004000500040079
:1019D600040004000200040004000400536F6D6557
:1019E6007468696E672057726F6E67005468616E1F
:1019F6006B20796F7520666F72207573696E67202C
:101A0600736D617274206368616972004170706CF5
:101A1600792053756E73637265656E0054616E6EE0
:101A2600696E6720446F6E6500506C656173652052
:101A3600466C69700052756E2054696D657200417E
:101A4600646A7573742054696D65720053657420F9
:101A560054696D65720054616E6E696E67205365D8
:101A66007373696F6E00555620526174696E670014
:101A76004D61696E204D656E750057656C636F6DBF
:101A86006500FFFFFF01FFFFFF05FFFF0A09FFFFDC
:101A9600FFFFFF01FFFF0604FFFF0605FF04040426
:101AA60001FFFFFF010302FFFFFFFF004014540088
:101AB60001010001000001010000010001010052C6
:101AC600494748545F4C44523A20004C4546545FBF
:101AD6004C44523A200025750046616972004D65F6
:0A1AE6006469756D004461726B00C5
:00000001FF
