:100000000C944D000C9462000C9462000C946200FD
:100010000C9462000C9462000C9462000C946200D8
:100020000C9462000C9462000C9462000C94930097
:100030000C9462000C94A5000C9462000C94620075
:100040000C9462000C9462000C9462000C946200A8
:100050000C9462000C9462000C9462000C94620098
:100060000C9462000C9462003E3E205553432045A0
:10007000453435394C203C3C373839303132333413
:10008000003E3E2061743332382D352E632068697E
:10009000203C3C3930313233340011241FBECFEFC5
:1000A000D8E0DEBFCDBF11E0A0E0B1E0E0EDF2E0CE
:1000B00002C005900D92A631B107D9F70E944C01FC
:1000C0000C9466010C9400008FE392E090938700FB
:1000D00080938600109285001092840080E390E067
:1000E0009093890080938800EFE6F0E08081836040
:1000F0008083E0E8F0E0808182608083E1E8F0E0E6
:100100008081886180838081846080832A9A78944A
:1001100008952FB7F89480918400909185002FBFA7
:100120000895229A08951F920F920FB60F921124EC
:100130008F939F9385B194E0892785B99F918F9183
:100140000F900FBE0F901F9018951F920F920FB631
:100150000F9211242F933F934F935F936F937F934D
:100160008F939F93AF93BF93EF93FF930E9493005E
:10017000FF91EF91BF91AF919F918F917F916F917F
:100180005F914F913F912F910F900FBE0F901F9055
:1001900018959BB19F709BB99BB1807F892B8BB9C0
:1001A0002998299A299A29980895CF93C82F0E94AF
:1001B000C9008C2F8295807FCF910C94C90028981C
:1001C0000E94D50086E69EE00197F1F700000895B1
:1001D0008295880F880F807C860F80680C94DF00E2
:1001E000289A0E94D50086E69EE00197F1F700006C
:1001F0000895CF93DF93EC01FE0184912196811144
:1002000003C0DF91CF9108950E94F000F5CFCF9306
:10021000DF93EC018991811103C0DF91CF910895A3
:100220000E94F000F7CF8AB1806F8AB984B18360F1
:1002300084B928988FEF9BE60197F1F700C0000082
:1002400080E30E94C9008FEF93E20197F1F700C0AD
:10025000000080E30E94C9008DED90E00197F1F766
:1002600080E30E94C90086E69EE00197F1F7000056
:1002700080E20E94C90086E69EE00197F1F7000047
:1002800088E20E94DF008FE00C94DF0086E69EE0AB
:100290000197F1F7000008950E94130181E00E9488
:1002A000DF0060E080E00E94E80080E091E00E94D2
:1002B000070160E081E00E94E8000E9464000E9463
:1002C000910089E091E00E940701FFCFF894FFCFF1
:1002D0005374617274696E6700496E697469616C08
:0602E000697A656400006C
:00000001FF
