:100000000C9447000C9459000C9459000C9459001E
:100010000C9459000C9459000C9459000C945900FC
:100020000C9459000C9459000C9459000C945900EC
:100030000C9459000C9459000C9476000C945900BF
:100040000C9459000C9459000C9459000C945900CC
:100050000C9459000C9459000C9459000C945900BC
:100060000C9459000C9459003E3E205553432045B2
:10007000453435394C203C3C373839303132333413
:1000800000436F756E74646F776E3A200000112420
:100090001FBECFEFD8E0DEBFCDBF21E0A0E0B1E0D2
:1000A00001C01D92A130B207E1F70E9411010C942A
:1000B0001C010C940000E4E8F0E0808191818260F2
:1000C000918380838FE787BDEEE6F0E080818260D8
:1000D0008083789485B5846085BD08952FB7F894A2
:1000E00080918400909185002FBF08951F920F92F8
:1000F0000FB60F9211248F9380910001813041F44B
:10010000109200018F910F900FBE0F901F901895C5
:1001100081E080930001F6CF9BB19F709BB99BB1AA
:10012000807F892B8BB985B1857F85B9299A299ADA
:1001300029980895CF93C82F0E948C008C2F829508
:10014000807FCF910C948C0028980E949A0086E6BC
:100150009EE00197F1F7000008958295880F880FBF
:10016000807C860F80680C94A400289A0E949A00D4
:1001700086E69EE00197F1F700000895CF93DF93A4
:10018000EC01FE0184912196811103C0DF91CF9192
:1001900008950E94B500F5CFCF93DF93EC018991CC
:1001A000811103C0DF91CF9108950E94B500F7CF70
:1001B0008AB1806F8AB984B18B6084B928988FEF37
:1001C0009BE60197F1F700C0000080E30E948C00DD
:1001D0008FEF93E20197F1F700C0000080E30E94E7
:1001E0008C008DED90E00197F1F780E30E948C0088
:1001F00086E69EE00197F1F7000080E20E948C0005
:1002000086E69EE00197F1F7000088E20E94A400D4
:100210008FE00C94A40086E69EE00197F1F70000C1
:1002200008950E94D80081E00E94A40080E80E9406
:0C023000A4000E945B00FFCFF894FFCFF9
:00000001FF
