:100000000C9464000C9481000C9481000C948F0378
:100010000C9422030C9481000C9481000C948100B8
:100020000C9481000C9481000C9481000C94DB00F2
:100030000C9481000C94ED000C9481000C948100D0
:100040000C9411010C9481000C9481000C9481009B
:100050000C9481000C9405030C9481000C94810095
:100060000C9481000C94810084007D007600BC001B
:10007000B1009E008B0053545546463100535455F1
:1000800046463200535455464633002D2D2D2D2D16
:100090002D2D2D2D2D2D2D2D2D2D2D2D2D002D2DBD
:1000A0002D2D2D2D2D2D2D2D2D2D2D2D2D2D2D2D80
:1000B00000536D61727443686169720057656C63C7
:1000C0006F6D6520746F000011241FBECFEFD8E064
:1000D000DEBFCDBF11E0A0E0B1E0EAE1FEE002C08A
:1000E00005900D92A232B107D9F721E0A2E2B1E06A
:1000F00001C01D92AD32B207E1F70E94A2030C9439
:100100000B070C94000010928500109284008EE181
:1001100097E0909389008093880080EE97E4909315
:10012000870080938600EFE6F0E080818360808323
:10013000E0E8F0E0808182608083E1E8F0E08081A7
:10014000886180838081826080832A9A089585B542
:10015000856085BDEEE6F0E0808181608083089552
:10016000229A0895681B770B693071058CF0809195
:100170008800909189008232974048F480918800ED
:10018000909189000196909389008093880008954A
:10019000683F7F4F6CF480918800909189008A318C
:1001A0009740A8F380918800909189000197EBCF48
:1001B0008EE197E0E8CF1F920F920FB60F921124B5
:1001C0008F939F9385B194E0892785B99F918F91F3
:1001D0000F900FBE0F901F9018951F920F920FB6A1
:1001E0000F9211242F933F934F935F936F937F93BD
:1001F0008F939F93AF93BF93EF93FF930E94DB0086
:10020000FF91EF91BF91AF919F918F917F916F91EE
:100210005F914F913F912F910F900FBE0F901F90C4
:1002200018951F920F920FB60F9211240F900FBEC8
:100230000F901F9018959BB19F709BB99BB1807FC9
:10024000892B8BB92998299A299A29980895CF93AF
:10025000C82F0E941B018C2F8295807FCF910C9418
:100260001B0128980E94270186E69EE00197F1F77E
:1002700000000895E82FF0E0EC5FFE4F8081860FCC
:1002800080680C94310181E00C943101289A0E941D
:10029000270186E69EE00197F1F700000895CF93CD
:1002A000DF93EC01FE0184912196811103C0DF915F
:1002B000CF9108950E944601F5CFCF93C82F60E0FB
:1002C0000E943A018EE30E94460160E08C2FCF919C
:1002D0000C943A01CF9360E00E943A01C4E18FEFA1
:1002E0000E944601C150D9F7CF910895CF93DF9373
:1002F000EC018991811103C0DF91CF9108950E9493
:100300004601F7CFAF92BF92CF92DF92EF92FF926A
:100310000F931F93CF93DF93CDB7DEB764970FB6DC
:10032000F894DEBF0FBECDBF5C018B017A0161E0A6
:1003300080E00E943A01053011050CF43FC0C8016D
:100340008E199F0904974CF4780184E0E81AF108AB
:1003500001501109D12CC12C1AC087010C5F1F4F0D
:10036000F9CFEE0FFF1FEA0DFB1D65917491CE01D1
:1003700001960E942C04CE0101960E94760161E054
:1003800081E08C0D0E943A018FEFC81AD80AF7015C
:10039000EC0DFD1DE017F10724F364960FB6F894F9
:1003A000DEBF0FBECDBFDF91CF911F910F91FF90A8
:1003B000EF90DF90CF90BF90AF900895F12CE12C9B
:1003C000C9CF8AB1806F8AB984B1836084B9289813
:1003D0008FEF9BE60197F1F700C0000080E30E94D9
:1003E0001B018FEF93E20197F1F700C0000080E35B
:1003F0000E941B018DED90E00197F1F780E30E94D0
:100400001B0186E69EE00197F1F7000080E20E9462
:100410001B0186E69EE00197F1F7000088E20E944A
:1004200031018FE00C94310186E69EE00197F1F7EF
:10043000000008959093C5008093C400E1ECF0E0C3
:1004400080818860808380818061808386E0809362
:10045000C20008959091C00095FFFCCF8093C60024
:1004600008958091C00087FFFCCF8091C600089559
:10047000CF93DF93EC018991811103C0DF91CF917C
:1004800008950E942A02F7CFEAE7F0E080818068B1
:100490008083ACE7B0E08C9180628C938C91806417
:1004A0008C93808188608083808186608083808156
:1004B00080628083EBE7F0E08081846080838C91B0
:1004C00082608C930895ECE7F0E09081907F9083B8
:1004D0009081892B8083EAE7F0E0808180648083CB
:1004E00008950F931F93CF93DF938C01EB019091AD
:1004F000280180912C019817E9F081E00E943101D8
:1005000060E080E00E943A018BE091E00E94760179
:10051000C8010E94760160E081E00E943A0187E113
:1005200091E00E947601CE010E947601809128011F
:1005300080932C0190912401809127019817E9F074
:1005400081E00E94310160E080E00E943A018BE08E
:1005500091E00E947601C8010E94760160E081E08E
:100560000E943A0187E191E00E947601CE010E944B
:1005700076018091240180932701DF91CF911F9113
:100580000F91089520917C002F70233019F5209150
:1005900079002093280120917C00207F20937C000B
:1005A00020917C00226020937C00FC01108220912D
:1005B00028011F922F9328E031E03F932F939F93C0
:1005C0008F930E9433040F900F900F900F900F9015
:1005D0000F900895809179008093240180917C0090
:1005E000807F80937C0080917C00836080937C007E
:1005F000FB011082809124011F928F9388E091E08B
:100600009F938F937F936F93DCCF1F920F920FB6C0
:100610000F9211248F9381E0809322018F910F908C
:100620000FBE0F901F901895E8E6F0E08081826081
:100630008083ECE6F0E080818360808388B1836012
:1006400088B908951F920F920FB60F9211242F931D
:100650008F939F9386B1982F917082702091230180
:10066000211112C0992339F080912B018F5F809363
:100670002B0181E02AC08823A1F080912B018150B9
:1006800080932B0182E021C020912301213001F5CC
:10069000911113C080912B01815080932B011092F6
:1006A000260180912601809323019F918F912F91A4
:1006B0000F900FBE0F901F901895882391F3809193
:1006C0002B018F5F80932B0183E080932601E9CF7C
:1006D00020912301223061F4992321F080912B0194
:1006E0008150F0CF8111DDCF80912B018F5FD5CF6D
:1006F000911104C080912B018F5FC2CF8111D1CFA6
:1007000080912B018150B3CFE8E6F0E080818160D9
:100710008083EBE6F0E080818068808308951F92FB
:100720000F920FB60F9211248F931F9B05C08091DB
:100730002A018F5F80932A018F910F900FBE0F9037
:100740001F901895CF93DF93CDB7DEB72C970FB6D8
:10075000F894DEBF0FBECDBF78940E94E1010E94E5
:10076000B0000E9483000E9444020E94A7000E94E1
:1007700084030E9414031092290110922B011092FD
:10078000250110922A0110922B018091260180935D
:1007900023010E94430111E088E0E82E81E0F82E59
:1007A000CE0101966C0120912B01812F012E000CAE
:1007B000990B28171906D9F080912B011F928F935E
:1007C000FF92EF92DF92CF920E9433040E94430186
:1007D00060E080E00E943A01C6010E94760110911B
:1007E0002B010F900F900F900F900F900F90809112
:1007F0002201882349F010922201BE01675F7F4FDA
:10080000CE0105960E94C2026091280180912401C8
:100810000E94B20080912501882329F2809129014C
:10082000882329F0813089F010922501BCCF50E057
:1008300040E064E070E08EE690E00E9482018091EA
:100840002B0190E00E945D01EFCF50E040E063E0BB
:1008500070E088E690E0F1CFFB01DC0105900D929D
:100860000020E1F70895AEE0B0E0E9E3F4E00C9495
:10087000E2060D891E8986E08C831A8309838FEF37
:100880009FE79E838D83AE01475E5F4F6F89788DB2
:10089000CE0101960E9456042F813885020F131F46
:1008A000F80110822E96E4E00C94FE06ABE0B0E076
:1008B000ECE5F4E00C94D4067C013B018A01FC01D8
:1008C00017821682838181FFC8C1CE0101965C0127
:1008D000F7019381F30193FD859193FF81913F018E
:1008E000882309F453C1853239F493FD859193FF30
:1008F00081913F01853229F4B70190E00E944606BC
:10090000E7CF912C212C312CFFE1F31538F08B32FD
:1009100011F190F4803209F1833229F137FC3CC0A7
:1009200020ED280F2A3050F536FE20C08AE0989E30
:10093000200D1124922E06C08D3291F0803371F774
:10094000689430F8F30193FD859193FF81913F0105
:100950008111DACF21C0689431F8689432F8F2CF6F
:10096000689433F8EFCF689434F8ECCFEAE02E9E29
:10097000200D1124222E689435F8E4CF8E3229F40C
:1009800036FC04C1689436F8DDCF8C3619F46894CF
:1009900037F8D8CF8836B1F2982F9F7D9554933091
:1009A000E0F08336A1F18337C1F1833509F063C0EC
:1009B0002801F2E04F0E511CF801C080D180692D52
:1009C00070E036FC02C06FEF7FEFC6010E94300678
:1009D0004C01689437F882010AC00C5F1F4FFFE397
:1009E000F98388248394912C6501E89437F833FEC9
:1009F0002DC0522C8114910471F5552009F468CF53
:100A0000B70180E290E00E9446065A94F6CFF801C2
:100A1000808189830E5F1F4FE4CF2801F2E04F0EE3
:100A2000511CF801C080D180692D70E036FC02C0F5
:100A30006FEF7FEFC6010E943B064C018201D5CFCC
:100A4000B70180E290E00E9446062A942814190417
:100A500009F0B0F7CECFF60137FC859137FE8191D2
:100A60006F01B70190E00E94460651105A94F1E0E0
:100A70008F1A9108BFCF843619F0893609F077C0F4
:100A8000F80137FE6BC060817181828193810C5FB8
:100A90001F4FF32DFF763F2E97FF09C0909580954D
:100AA000709561957F4F8F4F9F4F689437F82AE07C
:100AB00030E0A5010E947606C82ECA188C2C432C63
:100AC00036FE0CC0E89440F8C91440F434FE05C06A
:100AD00032FC03C0F32DFE7E4F2E892C44FE95C0C0
:100AE000FE01EC0DF11D8081803309F087C0242DBB
:100AF000297E422E842D8870582E43FC95C040FEDE
:100B00008FC09C2C821418F42C0C922C981844FE44
:100B100091C0B70180E390E00E94460642FE09C002
:100B200088E790E041FE02C088E590E0B7010E94AE
:100B30004606C91408F48AC0CA94D12C9FEFC91A7A
:100B4000D90ACA0CDB1CF60182916F01B70190E053
:100B50000E944606AC14BD04B1F74FCF608171818D
:100B6000072E000C880B990B0E5F1F4F92CFD32CD2
:100B7000E894D4F82AE030E0853739F1232D297F35
:100B8000D22E8F3601F148F48835A9F0F70186811D
:100B900097812B96E2E10C94F006803749F0883774
:100BA000A9F7D4FE02C06894D2F820E130E00DC06D
:100BB0006894D4F8F6CF34FE03C0822F8660D82E16
:100BC00020E132E002C028E030E0F801D7FE0FC09B
:100BD00060817181828193810C5F1F4FA5010E940A
:100BE0007606C82ECA183D2CE89437F867CF608186
:100BF000718190E080E00E5F1F4FF0CF42FC02C099
:100C0000839478CF8394839475CF842D867809F468
:100C100071CFF6CFB70180E290E00E944606839440
:100C20008214C0F3512C73CF522C5818821408F43C
:100C30006ECFF8CF842D867809F47BCF8BE241FE0E
:100C400080E247FC8DE2B70190E071CFB70180E30D
:100C500090E00E9446069A946CCF8FEF9FEF99CF59
:100C6000FC010590615070400110D8F78095909577
:100C70008E0F9F1F0895FC0161507040019001107C
:100C8000D8F7809590958E0F9F1F08950F931F930F
:100C9000CF93DF93182F092FEB018B8181FD09C0C2
:100CA0001FEF0FEF812F902FDF91CF911F910F91A9
:100CB000089582FF14C02E813F818C819D81281769
:100CC00039073CF4E881F981CF0101969983888343
:100CD00010838E819F8101969F838E83E3CFE88569
:100CE000F985812F0995892BA1F3DACFFA01AA277B
:100CF000283051F1203181F1E8946F936E7F6E5F5F
:100D00007F4F8F4F9F4FAF4FB1E03ED0B4E03CD00C
:100D1000670F781F891F9A1FA11D680F791F8A1FEF
:100D2000911DA11D6A0F711D811D911DA11D20D056
:100D300009F468943F912AE0269F11243019305D10
:100D40003193DEF6CF010895462F4770405D419301
:100D5000B3E00FD0C9F7F6CF462F4F70405D4A334E
:100D600018F0495D31FD4052419302D0A9F7EACF16
:100D7000B4E0A6959795879577956795BA95C9F745
:100D800000976105710508959B01AC010A2E069438
:100D90005795479537952795BA95C9F7620F731FF1
:100DA000841F951FA01D08952F923F924F925F922E
:100DB0006F927F928F929F92AF92BF92CF92DF926B
:100DC000EF92FF920F931F93CF93DF93CDB7DEB7D0
:100DD000CA1BDB0B0FB6F894DEBF0FBECDBF099464
:100DE0002A88398848885F846E847D848C849B84BB
:100DF000AA84B984C884DF80EE80FD800C811B81C9
:100E0000AA81B981CE0FD11D0FB6F894DEBF0FBEF7
:0A0E1000CDBFED010895F894FFCF67
:100E1A000300040000401454257500524947485401
:100E2A005F4C44523A20004C4546545F4C44523A77
:020E3A00200096
:00000001FF
