:100000000C9434000C943E000C943E000C943E0082
:100010000C943E000C943E000C943E000C943E0068
:100020000C943E000C943E000C943E000C943E0058
:100030000C943E000C943E000C9488000C943E00FE
:100040000C943E000C943E000C943E000C943E0038
:100050000C943E000C943E000C943E000C943E0028
:100060000C943E000C943E0011241FBECFEFD8E04C
:10007000DEBFCDBF0E94AD000C94B4000C94000014
:100080009093C5008093C400E1ECF0E0808188602B
:10009000808380818061808386E08093C2000895A0
:1000A0009091C00095FFFCCF8093C6000895CF9338
:1000B000DF93EC018991811103C0DF91CF91089505
:1000C000082E000C990B0E945000F4CF8091C000C4
:1000D00087FFFCCF8091C6000895E4E8F0E08081BE
:1000E000918182609183808380E187BDEEE6F0E0BC
:1000F000808182608083789485B5846085BD089511
:100100002FB7F89480918400909185002FBF0895B7
:100110001F920F920FB60F9211242F933F934F937C
:100120005F936F937F938F939F93AF93BF93EF935F
:10013000FF9388E70E945000FF91EF91BF91AF912C
:100140009F918F917F916F915F914F913F912F91EF
:100150000F900FBE0F901F9018958FE290E00E94B5
:0C01600040000E946D00FFCFF894FFCF1C
:00000001FF
